:020000040000FA
:020000000E28C8
:08000800A0000308A10034145C
:1000100021088300A00E200E8B10090083168B137D
:100020000F3085000130860001138E309F0083124F
:1000300005168601B4018B170B16341C1D28813060
:100040009F0071201F151F1923281E08A600831664
:100050001E088312A70089309F0071201F151F19E9
:100060002F281E08A80083161E088312A9009130AD
:100070009F0071201F151F193B281E08B000831612
:100080001E088312B10099309F0071201F151F199F
:1000900047281E08B20083161E088312B3002608E4
:1000A0006120270861202808612029086120300884
:1000B0006120310861203208612033086120B401D9
:1000C0001D28A5000830A300051277202518051665
:1000D000251C05127720A50CA30B66280516772092
:1000E00008002030A2000000A20B74280800413054
:0A00F000A2000000A20B792808000E
:02400E00623F0F
:00000001FF
