:020000040000FA
:1000000083168501860183128501860103308F00E6
:1000100004309000013085005B20033085005B20B8
:1000200080308600023085005B2040308600023040
:1000300085005B204030CF008030CE00850103106A
:10004000CF0C4E084F0486005B200310CF0C4E08E7
:100050004F048600CE0C5B208F0B1F2803104E0828
:100060004F048600CF0D5B2003104E084F0486001E
:10007000CF0DCE0C5B20900B2E2802308500013076
:1000800086005B2001308500013086005B20013056
:100090008500860185010628A5308C00000000003F
:1000A0008C0B5028080063308D00000000004C20AD
:1000B0008D0B5728080005308E0053208E0B5D28CD
:0200C000080036
:02400E00FA3F77
:00000001FF
