:020000040000FA
:020000006E2868
:080008008C0003088D00861B2B
:100010001F20061B1320000000000D0883008C0E1B
:100020000C0E0B1009008F0A0F0894002A201618D6
:100030004C28910A110894002A20652008008F0A94
:100040008F0B232857288F039103110894002A202F
:10005000652008009701950196010830970003106C
:10006000940D950D960D03181514970B38284B28F1
:100070000330950795193E280330950230309507D7
:10008000951B442830309502033096079619302886
:1000900003309602302808008F01910195019601E6
:1000A00065200D0883008C0E0C0E0B1009006330C8
:1000B0008F0063309100633094002A2065200D0882
:1000C00083008C0E0C0E0B10090015088600150E0F
:1000D000801285000800940B6B2808008B11831692
:1000E0008501F030860083128B178B158501860100
:0C00F0008E0191018F01940100007C281A
:02400E00F23F7F
:00000001FF
