:020000040000FA
:1000000083160130850086010E309F0083128130F7
:100010009F008501860115201F151F190D289E0CB4
:100020001E0C1F20860186000B28203020080000AF
:100030000000000000000000A00B1C2808003F3951
:1000400082070034013402340234033404340534AA
:1000500005340634073408340934093410341134B3
:10006000123412341334143415341634163417344D
:1000700018341934203420342134223423342334E6
:100080002434253426342734273428342934303492
:100090003034313432343334343434343534363427
:1000A00037343834383439344034413441344234CC
:1000B0004334443445344534463447344834483472
:0200C0004934C1
:02400E00623F0F
:00000001FF
