:020000040000FA
:020000002828AE
:080008008C0003088D004F304D
:1000100032204B30322041303220573032204130B4
:100020003220203032204D303220413032205330C7
:1000300032204130322052303220553032200D30C3
:1000400032200A3032200D0883008C0E0C0E8B10EB
:1000500083168B13850101308600831205168B17DA
:100060000B163128920008308F000512422012181A
:100070000516121C05124220920C8F0B372805160C
:100080004220080082308E0000008E0B44280800B9
:02400E00F23F7F
:00000001FF
