:020000040000FA
:020000001128C5
:080008008C0003088D00FF309D
:100010009300202091000D0883008C0E0C0E8B1095
:10002000090083168B1385010F308600011383129C
:100030008B170B1693010030850013182E281B28F0
:10004000900108308F00492006180314061C031085
:10005000900C4F208F0B24281008080011089200E4
:100060003030120603193D203130120603194020AA
:1000700032301206031943204620013085001B2828
:10008000023085001B28043085001B2808308500BD
:100090001B28C3308E0000008E0B4B2808008230D6
:0A00A0008E0000008E0B51280800AE
:02400E00F23F7F
:00000001FF
