:020000040000FA
:020000001228C4
:080008008C0003088D001F208D
:100010009100911211082D200D0883008C0E0C0EFA
:100020008B10090083168B1385010F308600011396
:1000300083129101850186018B170B161E289001F2
:1000400008308F003D2006180314061C0310900C86
:1000500043208F0B232810080800920008308F00DF
:100060000512432012180516121C05124320920C8B
:100070008F0B3228051643200800C3308E00000085
:100080008E0B3F28080082308E0000008E0B452822
:02009000080066
:02400E00F23F7F
:00000001FF
