:020000040000FA
:020000001028C6
:080008008C0003088D00262086
:10001000990050200D0883008C0E0C0E8B100900E7
:1000200083168B1385010F3086000113831285011F
:1000300086018B170B169101A101A0019F0193016D
:1000400094019501960197019801252890010830A7
:100050008F00442006180314061C0310900C4A203D
:100060008F0B2A2810080800920008308F00051214
:100070004A2012180516121C05124A20920C8F0BEA
:10008000392805164A200800C3308E0000008E0B68
:100090004628080082308E0000008E0B4C28080095
:1000A00013301107840026208000910A0D3034207F
:1000B0000A30342013083420140834201508342062
:1000C0001608342017083420180834200D30342046
:1000D0000A3034201108063A981A6F2008001508D3
:1000E0002D3AA000950198013030930293099402B3
:1000F00094099602960997029709130E1404950025
:100100003420160E1704980034200D3034200A30A5
:10011000342020198E20201DA420080015089807DF
:10012000C42092281B0A303E000B34201A0E0F39CF
:10013000303E34201A080F39303E34200D30342040
:100140000A303420BB20080015081802801BAA20A2
:100150000009AD282D30342008001A0E0F39303E2A
:1001600034201A080F39303E34200D3034200A3044
:100170003420BB2008009101930194019501960160
:1001800097019801A00108009C0199019A019B0127
:1001900008309C00031018089900990D9A0D9B0DCA
:1001A00003181A149C0BD528E82803309A079A19CB
:1001B000DB2803309A0230309A079A1BE12830304E
:1001C0009A0203309B079B19CD2803309B02CD2850
:0201D000080025
:02400E00F23F7F
:00000001FF
