:020000040000FA
:020000001928BD
:080008008C0003088D00133089
:100010001907840028208000990A19083620190839
:10002000063A031952200D0883008C0E0C0E8B101B
:10003000090083168B1385010F308600011383128C
:10004000990193019401960197018B170B162728AC
:10005000900108308F00462006180314061C031078
:10006000900C4C208F0B2C281008080092000830B0
:100070008F0005124C2012180516121C05124C2078
:10008000920C8F0B3B2805164C200800C3308E00C5
:1000900000008E0B4828080082308E0000008E0B76
:1000A0004E28080030301302031CA3281308393CE3
:1000B000031CA32830301402031CA3281408393C65
:1000C000031CA32830301602031CA3281608393C51
:1000D000031CA32830301702031CA3281708393C3F
:1000E000031CA32815082B3A031DA32818083D3A22
:1000F000031DA328A001A101A301303093029402A3
:100100009602970214081707A0000A30200203186D
:10011000912013081607A1070A3021020318942022
:100120009728A000A10A0800A100A30A0800231C28
:100130009C282308303E36202108303E36202008F7
:10014000303E3620AD2845303620523036205230F1
:1001500036204F3036205230362099010A30362072
:060160000D3036200800FE
:02400E00F23F7F
:00000001FF
